:040000006BEF37F07B
:106EAC00016E01C023F01200016E01C024F012002B
:106EBC009368F19E0E0EC16E12009280010EC26E8E
:106ECC000E0EC16EAA0EC06E120000EE1BF00A0E62
:106EDC00EE6AE806FDE100012EEF3AF094929494EC
:106EEC00030ECA12CA840C0EBD120C0EBA1212007A
:106EFC00026E8480849402C083FF84828492849086
:106F0C0089EC37F01200000E016E012A180E016494
:106F1C0092EF37F094EF37F08BEF37F01200000E52
:106F2C00026E89EC37F0022A310E0264A0EF37F0C2
:106F3C00A2EF37F097EF37F01200DAEC37F001C020
:106F4C0005F002C006F0000E086E020E076ECCECC7
:106F5C0039F005C00DF006C00EF01200015003020E
:106F6C00F3CF05F0F4CF06F001500402F3500626DF
:106F7C0002500302F350062605C001F006C002F0D1
:106F8C001200480E016EE80E026E010E036E000E2A
:106F9C00046E0FC005F010C006F0076A086A2EECEC
:106FAC003BF00104CB6E1200C282C2B2E0EF37F0AC
:106FBC00E2EF37F0DBEF37F0C4CF03F0046A035095
:106FCC00046E036AC3500326000E042203C001F0B2
:106FDC0004C002F01200036E8490849403C083FFFB
:106FEC0084828492020E0318D8B4FFEF37F001EFBD
:106FFC0038F009EF38F00304D8A407EF38F009EFA4
:10700C0038F00DEF38F095EC37F00FEF38F089ECE5
:10701C0037F01200969096929694000E956E0E0E86
:10702C00C16E95EC37F095EC37F095EC37F095ECAC
:10703C0037F095EC37F0380EF1EC37F095EC37F083
:10704C0095EC37F0380EF1EC37F095EC37F0380E54
:10705C00F1EC37F0380EF1EC37F0060EF1EC37F0BE
:10706C000F0EF1EC37F0010EF1EC37F012000A5074
:10707C000B10D8B444EF38F046EF38F06AEF38F024
:10708C00010E0C6E4EEF38F0D8900A360B360C2AE7
:10709C000BAE53EF38F055EF38F04AEF38F00A509A
:1070AC00085C0B500958D8A05EEF38F060EF38F050
:1070BC0064EF38F00A50085E0B50095AD8900B3226
:1070CC000A320C2E55EF38F008C008F009C009F050
:1070DC0012000A6E010ECB24016E026A000E02220F
:1070EC000AC003F0046AB4EC37F001C00BF002C024
:1070FC000CF00BC001F00CC002F0000E046E190E67
:10710C00036EDBEC38F001C00BF002C00CF0FF0E8C
:10711C000B16030E0C160BC008F00CC009F0D8901F
:10712C0009320832D890093208320850BE6E0BC0B2
:10713C0008F0030E08160838F00BBD1212000A6E88
:10714C00010ECB24016E026A000E02220AC003F06B
:10715C00046AB4EC37F001C00BF002C00CF00BC0A9
:10716C0001F00CC002F0000E046E190E036EDBEC85
:10717C0038F001C00BF002C00CF0FF0E0B16030E22
:10718C000C160BC008F00CC009F0D890093208326C
:10719C00D890093208320850BB6E0BC008F0030EB1
:1071AC0008160838F00BBA121200000E066E000E0C
:1071BC00056E03500410D8B4E6EF38F0E8EF38F061
:1071CC0010EF39F0010E076EF0EF38F0D89003365F
:1071DC000436072A04AEF5EF38F0F7EF38F0ECEF91
:1071EC0038F0D890053606360350015C045002582E
:1071FC00D8A003EF39F005EF39F00AEF39F003505E
:10720C00015E0450025A0580D89004320332072ED6
:10721C00F7EF38F005C001F006C002F01200000EC6
:10722C00126E0EBE1EEF39F01CEF39F024EF39F060
:10723C000D6C0E1ED8B00E2A010E126E10BE2BEF66
:10724C0039F029EF39F02FEF39F00F6C101ED8B050
:10725C00102A0F501010D8B436EF39F038EF39F03F
:10726C005CEF39F0010E116E40EF39F0D8900F360B
:10727C001036112A10AE45EF39F047EF39F03CEFDC
:10728C0039F00F500D5C10500E58D8A050EF39F05B
:10729C0052EF39F056EF39F00F500D5E10500E5A78
:1072AC00D89010320F32112E47EF39F01250D8B45B
:1072BC0062EF39F064EF39F068EF39F00D6C0E1EA7
:1072CC00D8B00E2A0DC00DF00EC00EF01200DAEC84
:1072DC0037F001C005F002C006F0000E086E020E79
:1072EC00076ECCEC39F005C00FF006C010F024503E
:1072FC000D6E0E6A0F500D5C10500E58D8B089EF01
:10730C0039F08BEF39F092EF39F0640E6FEC38F006
:10731C00000E1E6E010E1D6E24500F5C000E1058D8
:10732C00D8B09BEF39F09DEF39F0B9EF39F023501D
:10733C000D6E0E6A0F500D5C10500E58D8B0A9EFA0
:10734C0039F0ABEF39F0B9EF39F0000E1E6E000ECC
:10735C001D6E000E1C6E000E1B6E000E6FEC38F0D6
:10736C00000EA5EC38F023500F5C000E1058D8B06E
:10737C00C2EF39F0C4EF39F0CBEF39F0000E1C6ED0
:10738C00010E1B6E640EA5EC38F01200000E0A6E96
:10739C0008BED5EF39F0D3EF39F0DBEF39F0076CDD
:1073AC00081ED8B0082A010E0A6E06BEE2EF39F0AC
:1073BC00E0EF39F0E8EF39F0056C061ED8B0062A7C
:1073CC00010E0A1A000E0C6E000E0B6E0750081000
:1073DC00D8B4F3EF39F0F5EF39F01DEF3AF0010EB8
:1073EC00096EFDEF39F0D89007360836092A08AE39
:1073FC0002EF3AF004EF3AF0F9EF39F0D8900B368F
:10740C000C360750055C08500658D8A010EF3AF01F
:10741C0012EF3AF017EF3AF00750055E0850065A93
:10742C000B80D89008320732092E04EF3AF00A503C
:10743C00D8B423EF3AF025EF3AF029EF3AF00B6C81
:10744C000C1ED8B00C2A0BC005F00CC006F01200B4
:10745C0010EC38F063EC37F074EC37F05EEC37F08E
:10746C00030E106EE80E0F6EC7EC37F01F0E5AECC1
:10747C0037F01C0E56EC37F0B4EC3BF0A3EC37F0C5
:10748C000DC015F00EC016F015C013F016C014F098
:10749C0044EC3CF06DEC39F0000E176E000E186EDB
:1074AC00000E196E000E1A6E17C001F018C002F013
:1074BC0019C003F01AC004F0000E056E000E066E23
:1074CC007A0E076E440E086EACEC3AF0D8A071EF51
:1074DC003AF073EF3AF075EF3AF042EF3AF017C02A
:1074EC0001F018C002F019C003F01AC004F0000E2D
:1074FC00056E000E066E800E076E3F0E086EA0EC39
:10750C003DF001C017F002C018F003C019F004C020
:10751C001AF017C001F018C002F019C003F01AC01D
:10752C0004F0000E056E000E066E7A0E076E440E09
:10753C00086EACEC3AF0D8A0A6EF3AF0A8EF3AF00F
:10754C0075EF3AF042EF3AF000EF00F0000E011444
:10755C00096E000E02140A6E800E03140B6E7F0E61
:10756C0004140C6E09500A100B100C10D8A4C1EFA7
:10757C003AF0C3EF3AF0CBEF3AF0000E016E000E8A
:10758C00026E000E036E000E046E000E0514096EE2
:10759C00000E06140A6E800E07140B6E7F0E081474
:1075AC000C6E09500A100B100C10D8A4E0EF3AF036
:1075BC00E2EF3AF0EAEF3AF0000E056E000E066EBE
:1075CC00000E076E000E086E04AEEFEF3AF0F1EF0E
:1075DC003AF0FAEF3AF0016C021ED8B0022A031E00
:1075EC00D8B0032A800E045608AEFFEF3AF001EF34
:1075FC003BF00AEF3BF0056C061ED8B0062A071EBE
:10760C00D8B0072A800E0856000E011A000E021A76
:10761C00000E031A800E041A000E051A000E061A2C
:10762C00000E071A800E081A0550015C065002580D
:10763C000750035808500458D8B027EF3BF029EFF7
:10764C003BF02CEF3BF0D8902DEF3BF0D8801200A4
:10765C00000E0A6E08BE37EF3BF035EF3BF041EF02
:10766C003BF0081E071E061E056C000E06220722A4
:10767C000822010E0A6E04BE48EF3BF046EF3BF0C9
:10768C0052EF3BF0041E031E021E016C000E022280
:10769C0003220422010E0A1A000E0B6E000E0C6E51
:1076AC00000E0D6E000E0E6E055006100710081021
:1076BC00D8B463EF3BF065EF3BF09BEF3BF0010E72
:1076CC00096E6FEF3BF0D890053606360736083654
:1076DC00092A08AE74EF3BF076EF3BF069EF3BF014
:1076EC00D8900B360C360D360E360550015C065014
:1076FC0002580750035808500458D8A088EF3BF0A4
:10770C008AEF3BF093EF3BF00550015E0650025AB6
:10771C000750035A0850045A0B80D890083207328D
:10772C0006320532092E76EF3BF00A50D8B4A1EFA1
:10773C003BF0A3EF3BF0ABEF3BF00E1E0D1E0C1E0F
:10774C000B6C000E0C220D220E220BC001F00CC093
:10775C0002F00DC003F00EC004F01200000E046E17
:10776C00030E0464BCEF3BF0BEEF3BF0C0EF3BF00C
:10777C0029EF3CF004C001F0010E026E012AC9EFA2
:10778C003BF0D8900236012EC7EF3BF00250FF0AB7
:10779C00936E04C001F0010E026E012AD8EF3BF08B
:1077AC00D8900236012ED6EF3BF00250FF0A816EC4
:1077BC00000E036E03C001F0040E0126010E026ED2
:1077CC00012AEBEF3BF0D8900236012EE9EF3BF0AB
:1077DC00025081140009D8A4F6EF3BF0F8EF3BF00F
:1077EC000BEF3CF00450020DF3500324016E010E1C
:1077FC00026E012A04EF3CF0D8900236012E02EF03
:10780C003CF0025020121DEF3CF00450020DF350DE
:10781C000324016E010E026E012A17EF3CF0D89082
:10782C000236012E15EF3CF00250FF0A2016032AF7
:10783C00010E036424EF3CF026EF3CF0E0EF3BF04C
:10784C00042AB6EF3BF020501F18D8A430EF3CF0C0
:10785C0032EF3CF035EF3CF0210639EF3CF00A0EEC
:10786C00216E20C01FF02150D8A43FEF3CF041EF17
:10787C003CF043EF3CF01FC022F01200800EF1EC04
:10788C0037F0540E7EEC37F0030E046EE80E036EE8
:10789C0013C001F014C002F0DBEC38F001C008F0AA
:1078AC0002C009F0000E0B6E0A0E0A6E3DEC38F0A9
:1078BC000850300F7EEC37F0000E046E640E036E31
:1078CC0013C001F014C002F0DBEC38F001C008F07A
:1078DC0002C009F0000E0B6E0A0E0A6E3DEC38F079
:1078EC000850300F7EEC37F0000E046E0A0E036E5B
:1078FC0013C001F014C002F0DBEC38F001C008F04A
:10790C0002C009F0000E0B6E0A0E0A6E3DEC38F048
:10791C000850300F7EEC37F013C008F014C009F09B
:10792C00000E0B6E0A0E0A6E3DEC38F00850300F4C
:10793C007EEC37F0480E7EEC37F0030E086EE80E46
:10794C00076E24C005F0066ACCEC39F005C00DF0CA
:10795C0006C00EF0000E106E0A0E0F6E15EC39F00C
:10796C000D50300F7EEC37F0000E086E640E076E73
:10797C0024C005F0066ACCEC39F005C00DF006C049
:10798C000EF0000E106E0A0E0F6E15EC39F00D5045
:10799C00300F7EEC37F0000E086E0A0E076E24C016
:1079AC0005F0066ACCEC39F005C00DF006C00EF0FF
:1079BC00000E106E0A0E0F6E15EC39F00D50300FD4
:1079CC007EEC37F024C00DF00E6A000E106E0A0E1D
:1079DC000F6E15EC39F00D50300F7EEC37F04C0E6D
:1079EC007EEC37F0030E086EE80E076E23C005F030
:1079FC00066ACCEC39F005C00DF006C00EF0000E96
:107A0C00106E0A0E0F6E15EC39F00D50300F7EEC27
:107A1C0037F0000E086E640E076E23C005F0066A80
:107A2C00CCEC39F005C00DF006C00EF0000E106E57
:107A3C000A0E0F6E15EC39F00D50300F7EEC37F04E
:107A4C00000E086E0A0E076E23C005F0066ACCEC19
:107A5C0039F005C00DF006C00EF0000E106E0A0EC7
:107A6C000F6E15EC39F00D50300F7EEC37F023C053
:107A7C000DF00E6A000E106E0A0E0F6E15EC39F03A
:107A8C000D50300F7EEC37F0C00EF1EC37F0430E9A
:107A9C007EEC37F03A0E7EEC37F01D041E10D8A4A5
:107AAC005AEF3DF05CEF3DF06AEF3DF0300E7EECAE
:107ABC0037F0310E7EEC37F0300E7EEC37F0300EB6
:107ACC007EEC37F076EF3DF0300E7EEC37F0300E7A
:107ADC007EEC37F0300E7EEC37F0300E7EEC37F06B
:107AEC00410E7EEC37F03A0E7EEC37F01B041C1086
:107AFC00D8A483EF3DF085EF3DF093EF3DF0300ED1
:107B0C007EEC37F0310E7EEC37F0300E7EEC37F039
:107B1C00300E7EEC37F09FEF3DF0300E7EEC37F000
:107B2C00300E7EEC37F0300E7EEC37F0300E7EEC03
:107B3C0037F012000450800B0D6E045004240F6EAD
:107B4C0003AEABEF3DF0ADEF3DF0AEEF3DF00F808F
:107B5C000F50D8B4B4EF3DF0B6EF3DF0CBEF3DF0A5
:107B6C000F28D8A4BCEF3DF0BEEF3DF0C6EF3DF0C2
:107B7C00000E016E000E026E000E036E000E046EFF
:107B8C00038E000E046ED3EF3DF0000E016E000E5E
:107B9C00026E000E036E000E046E0850800B0E6E0B
:107BAC000D500E18D8B4DDEF3DF0DFEF3DF0E0EFF7
:107BBC003DF00D8C085008240E6E07AEE8EF3DF03A
:107BCC00EAEF3DF0EBEF3DF00E800E50D8B4F1EF44
:107BDC003DF0F3EF3DF008EF3EF00E28D8A4F9EF9E
:107BEC003DF0FBEF3DF003EF3EF0000E056E000E96
:107BFC00066E000E076E000E086E078E000E086EE5
:107C0C0010EF3EF0000E056E000E066E000E076EB5
:107C1C00000E086E0F500E5CD8B017EF3EF019EF47
:107C2C003EF040EF3EF00DAC1EEF3EF020EF3EF08C
:107C3C0022EF3EF0800E0D1A0FC010F00EC00FF0A8
:107C4C0010C00EF001C010F005C001F010C005F01E
:107C5C0002C010F006C002F010C006F003C010F015
:107C6C0007C003F010C007F004C010F008C004F007
:107C7C0010C008F0000E106E0F500EC009F00A6A0A
:107C8C00095E000E0A5A0ABE55EF3EF00A5009E191
:107C9C001A0E095CD8A055EF3EF057EF3EF08EEF70
:107CAC003EF00150021003100410D8A460EF3EF017
:107CBC0063EF3EF0010E64EF3EF0000E106E000E0E
:107CCC00016E000E026E000E036E000E046E0EC0EE
:107CDC000FF097EF3EF010A076EF3EF078EF3EF00D
:107CEC007EEF3EF0D89010300109106E80EF3EF020
:107CFC00D890103201A085EF3EF087EF3EF088EF70
:107D0C003EF0108E043404320332023201320F2A58
:107D1C000E500F5CD8A095EF3EF097EF3EF071EF50
:107D2C003EF00DBC9CEF3EF09EEF3EF0DEEF3EF0E1
:107D3C000F50D8A4A4EF3EF0A6EF3EF0B0EF3EF00B
:107D4C00000E016E000E026E000E036E000E046E2D
:107D5C00FFEF3FF005500126065002220750032288
:107D6C000850042204A0BDEF3EF0BFEF3EF06BEFD5
:107D7C003FF010A0C4EF3EF0C6EF3EF0CCEF3EF06B
:107D8C00D89010300109106ECEEF3EF0D890103222
:107D9C0001A0D3EF3EF0D5EF3EF0D6EF3EF0108EC3
:107DAC00043404320332023201320F2A6BEF3FF0FB
:107DBC000550015C06500258075003580450800AC5
:107DCC00096E0850800A0958D8B0EFEF3EF0F1EF79
:107DDC003EF01CEF3FF00150055C096E0250065856
:107DEC000A6E035007580B6E045008580C6EFF0EA9
:107DFC000924016EFF0E0A20026EFF0E0B20036E8B
:107E0C00FF0E0C20046E800E0D1A106C1050D8A4AE
:107E1C0012EF3FF014EF3FF024EF3FF0010E01267C
:107E2C00000E02220322042224EF3FF00550015ED3
:107E3C000650025A0750035A0850045A01500210B7
:107E4C0003100410D8A42DEF3FF02FEF3FF064EF98
:107E5C003FF01050D8A435EF3FF037EF3FF064EF10
:107E6C003FF0000E016E000E026E000E036E000E4F
:107E7C00046EFFEF3FF0D89001360236033604361D
:107E8C0010AE4BEF3FF04DEF3FF04EEF3FF0018067
:107E9C0010A053EF3FF055EF3FF059EF3FF0D88073
:107EAC0010365BEF3FF0D89010360F50D8B461EF1E
:107EBC003FF063EF3FF064EF3FF00F0603AE69EF66
:107ECC003FF06BEF3FF041EF3FF0000E0E6E10AE47
:107EDC0072EF3FF074EF3FF08CEF3FF010C009F001
:107EEC007F0E0916D8B47DEF3FF07FEF3FF083EFA4
:107EFC003FF0010E0E6E8CEF3FF001A088EF3FF0CB
:107F0C008AEF3FF08CEF3FF07FEF3FF00E50D8B48C
:107F1C0092EF3FF094EF3FF0BFEF3FF0010E0126E0
:107F2C00000E02220322042204A09FEF3FF0A1EFD7
:107F3C003FF0BFEF3FF001C009F002C00AF003C0F0
:107F4C000BF004C00CF00C340C320B320A32093238
:107F5C0009C001F00AC002F00BC003F00CC004F021
:107F6C000F28D8B4BCEF3FF0BEEF3FF0BFEF3FF0AF
:107F7C000F2A0F28D8B4C5EF3FF0C7EF3FF0CFEF73
:107F8C003FF00F50D8A4CDEF3FF0CFEF3FF0E1EF33
:107F9C003FF0000E016E000E026E000E036E000E1E
:107FAC00046E0F50D8A4DDEF3FF0DFEF3FF0E1EFB0
:107FBC003FF0000E0D6E0FA0E6EF3FF0E8EF3FF044
:107FCC00EBEF3FF0038EECEF3FF0039ED8900F30B9
:107FDC00046E0DAEF4EF3FF0F6EF3FF0F7EF3FF02D
:107FEC00048E01C001F002C002F003C003F004C013
:047FFC0004F012007B
:020000040030CA
:08000000FF021F00FF8381FFD6
:00000001FF
